:020000040800F2
:1000000090E102201D030008432B00082B29000863
:100010003F2B0008D10800083D3000080000000018
:100020000000000000000000000000005D02000869
:10003000D508000800000000B9020008452B0008A0
:1000400037030008370300083703000837030008A8
:100050003703000837030008370300083703000898
:100060003703000837030008370300083703000888
:100070003703000837030008370300083703000878
:100080003703000837030008370300083703000868
:100090003703000837030008370300083703000858
:1000A0003703000837030008370300083703000848
:1000B0003703000837030008370300083703000838
:1000C0003703000837030008370300083703000828
:1000D00037030008ED2F0008370300083703000836
:1000E000D908000837030008370300083703000861
:1000F00037030008370300083703000837030008F8
:1001000037030008370300083703000837030008E7
:1001100037030008370300086D2B00083703000879
:1001200037030008370300083703000837030008C7
:1001300037030008370300083703000837030008B7
:1001400037030008370300083703000837030008A7
:100150003703000837030008370300083703000897
:100160003703000837030008370300083703000887
:1001700037030008370300083703000800000000B9
:100180003703000837030008370300083703000867
:100190003703000837030008370300083703000857
:1001A00037030008370300083703000800F002F89F
:1001B00000F044F80AA090E8000C82448344AAF1BD
:1001C0000107DA4501D100F039F8AFF2090EBAE8BB
:1001D0000F0013F0010F18BFFB1A43F0010318477B
:1001E0001892000038920000103A24BF78C878C1F5
:1001F000FAD8520724BF30C830C144BF04680C602D
:10020000704700000023002400250026103A28BF74
:1002100078C1FBD8520728BF30C148BF0B60704778
:10022000642900F07D81732900F0E482002070478A
:100230001FB509F0BDF81FBD10B510BD00F016FBCD
:100240001146FFF7F5FF06F06FFA00F034FB03B438
:10025000FFF7F2FF03BC02F00FFF00002C4B196800
:100260000868B0E8F04F80F30988BFF36F8F4FF054
:10027000000080F311887047000000000848006803
:10028000006880F308884FF0000080F3148862B69D
:1002900061B6BFF34F8FBFF36F8F00DF00BF00BFAA
:1002A00008ED00E0DFF80C00016841F47001016026
:1002B000704700BF88ED00E0EFF30980BFF36F8F58
:1002C000134B1A681EF0100F08BF20ED108A20E9AA
:1002D000F04F106009B44FF0500080F31188BFF365
:1002E0004F8FBFF36F8F07F0E7FF4FF0000080F3F1
:1002F000118809BC19680868B0E8F04F1EF0100FAB
:1003000008BFB0EC108A80F30988BFF36F8F704785
:1003100058000020EFF3058070470000094880472F
:1003200009480047FEE7FEE7FEE7FEE7FEE7FEE7D7
:10033000FEE7FEE7FEE7FEE704480549054A064BEF
:1003400070470000592B0008AD01000890D702202B
:1003500090E1022090D9022090D90220704753EA00
:10036000020C00F069802DE9F04B4FF00006002BE5
:100370001FBFB3FA83F503FA05F424FA05F65E40CD
:1003800012BF1643B2FA82F502FA05F4C5F1200550
:100390001EBF22FA05FC44EA0C04203556EA044C40
:1003A0004FEA144418BF641C4FF000084FF00009D6
:1003B000904271EB030C39D3002919BFB1FA81F7D0
:1003C00001FA07F6B0FA80F700FA07F6C7F120073E
:1003D0001EBF20FA07FC46EA0C062037B6FBF4FCE9
:1003E000A7EB0507103F07F01F0BCBF120060CFA17
:1003F0000BFB2CFA06F644BFB3460026202FA4BF01
:100400005E464FF0000B5BEA060C08BF4FF0010B95
:1004100019EB0B09ABFB027C48EB0608C01B06FB83
:1004200002CC0BFB03CC71EB0C01C1E70B4602467F
:1004300041464846BDE8F08B13B54FF000004FF041
:100440000001AFF30080BDE81C4070470FB40449C1
:1004500010B503AA029800F0D1F910BC5DF814FBA6
:10046000140000202DE9F0410E46044600202062D1
:100470002046E168884730B3252805D0D4E901211A
:100480009047206A401CF2E7E16820460027884731
:10049000050018D0A5F14100192802D820354FF4E5
:1004A00000673246294620462760FFF7B9FE40B173
:1004B000012804D0F61D26F007060836D8E7361DB9
:1004C000D6E72846DAE7206ABDE8F08170B50C4629
:1004D0000546012A05D02878800600D5EA69002360
:1004E00002E0012305E05B1C934202D2E05C00289D
:1004F000F9D1A869E618C01AA861286A18442862C8
:100500002846AFF3008004E0D5E9012114F8010B7F
:100510009047B442F8D32846AFF3008070BD000086
:100520002DE9F0410646002410687529314616A5CC
:1005300010D0AFF30080002802DA404213A507E094
:1005400031688A0701D512A502E0490704D511A533
:10055000012401E0AFF3008000210A2206F1240704
:1005600009E0B0FBF2FCB0FBF2F302FB1C00303000
:1005700078541846491C0028F3D123462A463046B1
:10058000BDE8F04100F0B2B8000000002D0000000E
:100590002B00000020000000032A40F2308010F001
:1005A000030C00F0158011F8013BBCF1020F62440E
:1005B00098BF11F801CB00F8013B38BF11F8013B9F
:1005C000A2F1040298BF00F801CB38BF00F8013B4C
:1005D00011F0030300F02580083AC0F0088051F8BC
:1005E000043B083A51F804CBA0E80810F5E7121DC7
:1005F0005CBF51F8043B40F8043BAFF30080D207E6
:1006000024BF11F8013B11F801CB48BF11F8012BB1
:1006100024BF00F8013B00F801CB48BF00F8012BD4
:10062000704710B5203AC0F00B80B1E81850203A5E
:10063000A0E81850B1E81850A0E81850BFF4F5AF82
:100640005FEA027C24BFB1E81850A0E8185044BF0C
:1006500018C918C0BDE810405FEA827C24BF51F879
:10066000043B40F8043B08BF7047D20728BF31F86D
:10067000023B48BF11F8012B28BF20F8023B48BFBE
:1006800000F8012B704702F0FF0343EA032242EA1D
:10069000024200F0C7B84FF0000200B5134694467E
:1006A0009646203922BFA0E80C50A0E80C50B1F1CA
:1006B0002001BFF4F7AF090728BFA0E80C5048BFDE
:1006C0000CC05DF804EB890028BF40F8042B08BF7C
:1006D000704748BF20F8022B11F0804F18BF00F878
:1006E000012B704770477047704770472DE9F047FE
:1006F0000D4699469246044600F124080168880692
:1007000004D5E06921F01001216000E00120A84239
:1007100001DD471B00E00027A1697A1902EB0900FF
:10072000081AA0612078C00602D42046AFF30080EA
:10073000002608E0D4E901211AF806009047206A53
:10074000401C761C20624E45F4DB2078C0060AD59A
:100750002046AFF3008006E0D4E901213020904725
:10076000206A401C2062381EA7F10107F4DC07E074
:10077000D4E9012118F805009047206A401C206246
:10078000281EA5F10105F3DC2046AFF30080207898
:10079000000602D50220BDE8F0870120FBE700003B
:1007A00001694A1C02610878704700B58FB0CDE935
:1007B00001310021059105497944CDE90310114625
:1007C0006846FFF74FFE0FB000BD0000E5FFFFFFDA
:1007D00010B5436913B1AFF3008001E0FFF776FE77
:1007E000012010BD127800F124010A7000224A7025
:1007F0000122EDE711684FF0FF32E9E7074B70B5D2
:100800000D467B44FFF7D1FF0446284600F02AF846
:1008100010B14FF0FF3070BD204670BD4729000079
:100820004FF000020429C0F0128010F0030C3FF4D6
:1008300034AFCCF1040CBCF1020F18BF00F8012B4F
:10084000A8BF20F8022BA1EB0C01FFF726BF5FEA3F
:10085000C17C24BF00F8012B00F8012B48BF00F831
:10086000012B7047007B00F080007047754600F058
:100870002BF8AE4605006946534620F00700854632
:1008800018B020B5FFF758FDBDE820404FF0000636
:100890004FF000074FF000084FF0000B21F0070168
:1008A000AC46ACE8C009ACE8C009ACE8C009ACE8AB
:1008B000C0098D46704710B50446AFF3008020464E
:1008C000BDE81040FFF7C3BC004870472CD702209A
:1008D00000BFFEE77047000010B54FF4005000F075
:1008E000FDF94FF400500149086010BD143C01406F
:1008F00070B50446B3F5804F13D1D1E9000540EA45
:1009000005108D6840EA05208D6928438D8940EAED
:10091000054054F82250064E3540284344F8220042
:1009200003E06FF0704044F82200002070BD00002A
:100930000000F0CF70B50246086852F8200020F0A1
:1009400001000E6842F826008868082801D1402579
:1009500000E00025486828438E683043CE68304365
:100960000E6930434E693043CE6930430E6A3043DE
:100970004E6A30438E6A3043CE6A30430E6B40EA93
:10098000060388690343486B0343C86B03430E4C5B
:1009900044F4806444F4801444F4E024086852F879
:1009A0002000A04318430E6842F82600486BB0F5BB
:1009B000801F07D1086828B1106820F480104E6BA2
:1009C00030431060002070BD7FFB080030B5034647
:1009D000D1E9000540EA05108D6840EA05208D89BF
:1009E00040EA0545088A401E45EA0055087D801EFC
:1009F00045EA00608D692843551C53F8255005F0E1
:100A000040452843551C43F82500186800F4801021
:100A1000B0F5801F0BD1586820F47004088A401E7E
:100A200044EA0054586820F47000204358600020C5
:100A300030BD02460868B0B9D1E901031843CB685C
:100A400018430B6918434B6918438B691843CB69EA
:100A500018430B6A18434B6A184313686FF30E036D
:100A60001843106019E0D1E9070318434B6A184393
:100A7000136823F4F84318431060D1E901031843C5
:100A8000CB6818430B6918434B6918438B691843AB
:100A900053686FF30E0318435060002070470246FE
:100AA000506943F6FE73984340EA410050610020CC
:100AB00070472DE9F04105460C4616460027D4E95B
:100AC00000010843A168491E40EA4110E16840EA7C
:100AD000412029696FF315010843286100F02CFAC1
:100AE00007460AE0701C40B126B100F025FAC01B91
:100AF000B04202D90320BDE8F081A86900F02000CF
:100B00002028EFD00020F6E730B50346FAB9086890
:100B1000401E4C68641E40EA04148868401E44EA83
:100B20000024C868401E44EA0034088A401E44EA93
:100B30000044888A401E44EA0054087E401E44EA6D
:100B400000609C6804F070442043986022E0C8680C
:100B5000401E0403888A401E44EA00509C680E4DE3
:100B60002C40204398600868401E4C68641E40EA90
:100B700004148868401E44EA0024088A401E44EA9F
:100B80000044087E401E44EA0060DC6804F07044C3
:100B90002043D860002030BDFF0F0FFF70B5044622
:100BA000A56D00F0C9F9064694F83500022808D072
:100BB0008020606500BF002084F8340000BF012061
:100BC00070BD2068006820F0160021680860206869
:100BD000406920F0800021684861206C08B9A06C51
:100BE00028B12068006820F00800216808602068AB
:100BF000006820F001002168086010E000F09CF916
:100C0000801B05280BD920206065032084F835005F
:100C100000BF002084F8340000BF0320D0E7206824
:100C2000006800F001000028E8D194F85C103F2033
:100C30008840A860012084F8350000BF002084F8B7
:100C4000340000BF00BFBBE7014691F83500022821
:100C500003D08020486501207047052081F83500C9
:100C60000868006820F001000A6810600020F3E7BF
:100C700070B50546142002F01DFAB5F5005F1AD1D3
:100C80004FF400510D4800F03FF938B90C480068A6
:100C900008F082F904460BA0FFF7D8FB012C09D11C
:100CA00000BF34B120070C490860BFF34F8FBFF37A
:100CB0006F8F00BF00E000BF00BF70BD00080240A2
:100CC00008000020D4DAD6D0B6CFD6D0BBD6B8B480
:100CD0007461736B310D0A0004ED00E010B5044639
:100CE00004480068204020B1024804602046FFF715
:100CF000BFFF10BD143C0140F8B502460B4600256D
:100D0000002400200021E0E0012606FA01F51E681B
:100D100006EA0504AC4274D11E7906F00306012EE2
:100D200004D01E7906F00306022E13D190684F00FE
:100D30000326BE40B0434F00DE68BE4030439060A3
:100D4000506801268E40B0431E79C6F300168E40CF
:100D5000304350601E7906F00306032E09D0D06898
:100D60004F000326BE40B0434F009E68BE40304354
:100D7000D0601E7906F00306022E13D1CF0802F1CF
:100D8000200656F827004E07F70E0F26BE40B04348
:100D90004F07FF0E1E69BE403043CF0802F1200608
:100DA00046F8270010684F000326BE40B0431E7966
:100DB00006F003064F00BE40304310605E6806F444
:100DC0004036002E1DD000BF00260096414E3668EA
:100DD00046F480463F4F3E603E46366806F4804605
:100DE000009600BF00BF3C4E8F0856F827008E07C4
:100DF000370F0F26BE40B043384EB24202D1002614
:100E00002EE061E0364EB24201D1012628E0354E97
:100E1000B24201D1022623E0334EB24201D1032671
:100E20001EE0324EB24201D1042619E0304EB242E9
:100E300001D1052614E02F4EB24201D106260FE063
:100E40002D4EB24201D107260AE02C4EB24201D10A
:100E5000082605E02A4EB24201D1092600E00A2602
:100E60008F073F0FBE4030431B4E8F0846F82700C8
:100E7000244E3068A0435E6806F4801606B1204315
:100E8000204E3060361D3068A0435E6806F40016C0
:100E900006B120431B4E361D30601A4E361F306897
:100EA000A0435E6806F4003606B12043154E361F97
:100EB0003060361F3068A0435E6806F4803606B1A5
:100EC0002043104E083E3060491C1029FFF41CAF2F
:100ED000F8BD0000443802400838014000000240DC
:100EE0000004024000080240000C024000100240D2
:100EF0000014024000180240001C02400020024082
:100F000000240240083C0140024613690B400BB12B
:100F1000012000E00020704710B5426921EA020379
:100F200002EA010443EA0443836110BD0AB181610E
:100F300001E00B04836170470148006870470000BE
:100F4000200000200348006803490978084401494B
:100F500008607047200000202800002010B50D48D0
:100F6000006840F400700B4908600846006840F4CF
:100F7000806008600846006840F4807008600320C4
:100F800000F056FA0F2000F007F800F001FA0020F8
:100F900010BD0000003C024070B504460E480078C9
:100FA0004FF47A71B1FBF0F00C490968B1FBF0F530
:100FB000284601F039F908B1012070BD102C07D284
:100FC00000222146501E00F0F4F90548046001E0BB
:100FD0000120F2E70020F0E72800002000000020B8
:100FE0002400002070B504460E46154600BF94F854
:100FF000A000012801D1022070BD012084F8A000CA
:1010000000BF022084F8A10005EB850101EBC502B9
:1010100004F1380101EB820034223146FFF701FB75
:101020002A463146204601F082FC012021684862B0
:1010300084F8A10000BF002084F8A00000BF00BF1A
:10104000DAE7000070B504460CB9012070BD94F8D1
:10105000A10028B9002084F8A000204600F07EF806
:10106000022084F8A1002068806920F07040216887
:101070008861D4E901010843E16808432169084314
:10108000216889690843216888612068806832493D
:10109000084021688860A08A050420688068A169EA
:1010A00029430843216888602068C0682A490840AD
:1010B0002168C860A08B05042068C068216A2943A4
:1010C00008432168C86020680069234908402168F6
:1010D0000861A08C050420680069A16A29430843BF
:1010E00021680861206840691B49084021684861FF
:1010F000A08D050420684069216B294308432168BD
:10110000486194F83500050294F83600060420681A
:10111000C06A00F07F402168C86246EA050094F882
:10112000341008432168C96A08432168C8622068EE
:10113000406B40F00600216848632068806940F0F9
:101140000100216888610020C4F8A400012084F80F
:10115000A10000207AE7000000F800F010B586B08A
:10116000044600BF002000904D48006840F08060B9
:101170004B4908600846006800F08060009000BF9E
:1011800000BF00BF0020009045481438006840F4BC
:1011900000004349143908600846006800F4000064
:1011A000009000BF00BF00BF00200090084600680C
:1011B00040F0020008600846006800F0020000905D
:1011C00000BF00BF00BF002000900846006840F04C
:1011D000200008600846006800F02000009000BF72
:1011E00000BF00BF002000900846006840F04000AB
:1011F00008600846006800F04000009000BF00BF93
:1012000000BF002000900846006840F080000860A1
:101210000846006800F08000009000BF00BF00BFDB
:10122000002000900846006840F48070086008467E
:10123000006800F48070009000BF00BF2020019083
:101240000120029003900320049001A91548FFF7A4
:1012500053FD4FF480600190022002900020039023
:10126000032004900E20059001A90F48FFF744FDCC
:101270004FF40C60019001A90C48FFF73DFD4FF4BD
:101280007E40019001A90A48FFF736FD40F2F76061
:10129000019001A90748FFF72FFD06B010BD00001F
:1012A000443802400004024000140240001802408A
:1012B000001C0240002002402DE9F04104460E4689
:1012C0001746984600BF94F8A000012802D10220DA
:1012D000BDE8F081012084F8A00000BF022084F85E
:1012E000A10008EB880000EBC80104F1380000EB16
:1012F00081052E60A86A30446860AF60E86A3844AF
:10130000E86042462946204601F011FB0120216891
:10131000486284F8A10000BF002084F8A00000BF4C
:1013200000BFD5E72DE9F04104460E461746984622
:1013300000BF94F8A000012802D10220BDE8F0818E
:10134000012084F8A00000BF022084F8A10008EB6F
:10135000880000EBC80104F1380000EB8105286823
:1013600030446860A8683844E860AE62EF62424684
:101370002946204601F0DBFA01202168486284F802
:10138000A10000BF002084F8A00000BF00BFD5E787
:10139000704701460846002809DB00F01F030122C0
:1013A0009A4043099B0003F1E023C3F8002100BFEA
:1013B00070472DE9F05F80460D461646002701F084
:1013C0003FFE074639462A46334601F00700C0F182
:1013D000070ABAF1040F02D94FF0040A01E0C0F184
:1013E000070AD14600F1040ABAF1070F02D24FF002
:1013F000000A01E0A0F1030AD4464FF0010A0AFAFC
:1014000009FAAAF1010A0AEA020A0AFA0CFA4FF0EA
:10141000010B0BFA0CFBABF1010B0BEA030B4AEAD5
:101420000B042146404601F013FEBDE8F09F00008A
:1014300000BF00F00702064B19684FF6FF03194082
:10144000044B0B4343EA0221014B196000BF704774
:101450000CED00E00000FA0538B5002400BF0020C4
:1014600000901D48006840F080501B490860084605
:10147000006800F08050009000BF00BF01201749B5
:101480000864FFF759FD044607E0FFF755FD001B10
:10149000B0F57A7F01D9032038BD1148406800F4C7
:1014A0008030B0F5803FF0D101200C494864FFF74F
:1014B00043FD044607E0FFF73FFD001BB0F57A7FD0
:1014C00001D90320E8E70648406800F40030B0F591
:1014D000003FF0D10020DFE74038024000000E421C
:1014E00000700040F8B5044600250026207800F082
:1014F000010048B9207800F00200022804D02078CA
:1015000000F04000402862D10020B1498866FFF712
:1015100013FD054606E0FFF70FFD401B022801D929
:101520000320F8BDAB480068C0F3C0600028F2D1CA
:10153000207800F0010038B160688101207A41EA2A
:101540000070A44984310860207800F0020002286D
:1015500019D1A04884300068C0F302766068810128
:10156000207B41EA006040EA06709A4984310860B5
:1015700098488C30006820F01F00E169491E08433C
:1015800094498C310860207800F0400040280AD14E
:1015900060688101207B41EA0061207A41EA0070A5
:1015A0008C4984310860012089498866FFF7C4FCB2
:1015B000054606E0FFF7C0FC401B022801D90320C6
:1015C000AFE784480068C0F3C0600028F2D02078FC
:1015D00000F00400042804D0207800F00800082857
:1015E00063D100207A490867FFF7A6FC054606E0AC
:1015F000FFF7A2FC401B022801D9032091E77548A0
:101600000068C0F340700028F2D1207800F0040098
:10161000042819D16F4888300068C0F30276206929
:101620008101207D41EA006040EA06706949883105
:101630000860081D006820F4F851206A401E41EA45
:10164000002064498C310860207800F008000828E8
:1016500017D1604888300068C0F3036620698001B4
:1016600040EA0661207E41EA00705A4988310860EC
:10167000081D006820F44030616A084355498C31E8
:101680000860012052490867FFF756FC054606E04E
:10169000FFF752FC401B022801D9032041E74D48C7
:1016A0000068C0F340700028F2D0207800F02000DD
:1016B00020287DD100BF00200090464840300068BF
:1016C00040F080504349403108600846006800F00F
:1016D0008050009000BF00BF3F48006840F4807019
:1016E0003D490860FFF728FC054606E0FFF724FCAB
:1016F000401B022801D9032013E73748006800F493
:1017000080700028F2D033487030006800F44076D2
:101710004EB3208D00F44070B04224D02D4870307C
:10172000006820F4407601202C4908600020086001
:10173000284870300660006800F0010098B1FFF79B
:10174000FBFB054608E0FFF7F7FB401B41F2883141
:10175000884201D90320E4E61E4870300068C0F3D7
:1017600040000028EFD000BF208D00F44070B0F59D
:10177000407F0CD117480830006820F4F810184A50
:10178000A16A1140084313490831086007E0114875
:101790000830006820F4F8100E49083108600D4840
:1017A00070300068218DC1F30B010843094900E046
:1017B00002E07031086000BF207800F010001028AF
:1017C00003D194F82C00074908600020A9E6000026
:1017D000000047420038024000700040400E47427F
:1017E000FFFCFF0FE011474270B504460D460CB9EF
:1017F000012070BD5848006800F00F00A84209D2CF
:1018000055490D700846006800F00F00A84201D04D
:101810000120EEE7207800F0020002281DD1207898
:1018200000F00400042805D14C48006840F4E05062
:101830004A490860207800F00800082805D1474888
:10184000006840F46040454908604448006820F062
:10185000F000A168084341490860207800F00100C9
:10186000A8B36068012807D13C4808380068C0F375
:101870004040B8B90120BCE76068022802D0606827
:10188000032807D1354808380068C0F3406048B9DC
:101890000120AEE7314808380068C0F3400008B9BD
:1018A0000120A6E72D48006820F003006168084386
:1018B0002A490860FFF740FB064609E0FFF73CFBBA
:1018C000801B41F28831884202D9032091E707E06A
:1018D0002248006800F00C006168B0EB810FEDD188
:1018E0001D48006800F00F00A84209D91A490D7080
:1018F0000846006800F00F00A84201D0012078E7F8
:10190000207800F00400042807D11448006820F46F
:10191000E050E168084311490860207800F00800B1
:10192000082808D10D48006820F46040216940EA89
:10193000C1000A49086000F03FF808490968C1F38E
:101940000311074A515CC840064908600648006810
:10195000FFF722FB00204CE7003C02400838024021
:10196000BA9300080000002024000020014800680D
:10197000704700000000002000B5FFF7F7FF0449A2
:101980000968C1F38221034A515CC84000BD0000D0
:1019900008380240CA93000800B5FFF7E7FF044982
:1019A0000968C1F34231034A515CC84000BD0000E0
:1019B00008380240CA9300082DE9F04700240025AA
:1019C0000026A1462548006800F00C0020B104283C
:1019D00005D008283AD105E0DFF8849039E0DFF837
:1019E000849036E01D48001F006800F03F041B484B
:1019F000001F006800F4800078B11A481749091FD9
:101A00000968C1F38811A0FB01700146224600233A
:101A10003846FEF7A4FC05460EE011480F49091FA1
:101A20000968C1F38811A0FB01700146224600231A
:101A30003846FEF794FC05460848001F0068C0F3CE
:101A40000140401C4600B5FBF6F902E0DFF81090BB
:101A500000BF00BF4846BDE8F087000008380240DC
:101A60000024F40040787D01F8B504460CB901204B
:101A7000F8BD207800F00100002874D0F948006813
:101A800000F00C0004280DD0F648006800F00C00AF
:101A9000082813D1F348001F006800F48000B0F557
:101AA000800F0BD1EF4808380068C0F34040002891
:101AB00059D06068002856D10120D9E700BF60687E
:101AC000B0F5803F08D1E7480838006840F480301E
:101AD000E449083908601EE06068B0F5A02F0DD118
:101AE000E0480838006840F48020DE490839086082
:101AF0000846006840F4803008600CE0D948083897
:101B0000006820F48030D74908390860084600682A
:101B100020F48020086000BF606890B1FFF70CFAE5
:101B2000054606E0FFF708FA401B642801D90320A8
:101B30009EE7CC4808380068C0F340400028F1D048
:101B400011E0FFF7F9F9054606E0FFF7F5F9401B4C
:101B5000642801D903208BE7C24808380068C0F325
:101B600040400028F1D1207800F0020002285FD127
:101B7000BC48006800F00C0058B1BA48006800F09A
:101B80000C0008281CD1B748001F006800F4800032
:101B9000B0B9B44808380068C0F3400020B1E0682C
:101BA000012801D0012063E7AE480838006820F022
:101BB000F800216940EAC100AA490839086037E005
:101BC000E06800B30120A8490860FFF7B5F90546B1
:101BD00006E0FFF7B1F9401B022801D9032047E7CF
:101BE000A04808380068C0F340000028F1D09D48A4
:101BF0000838006820F0F800216940EAC1009949DE
:101C00000839086014E0002097490860FFF794F94C
:101C1000054606E0FFF790F9401B022801D9032092
:101C200026E7904808380068C0F340000028F1D14A
:101C3000207800F0080008282CD16069A8B10120A4
:101C40008A490860FFF778F9054606E0FFF774F95E
:101C5000401B022801D903200AE782486C30006843
:101C6000C0F340000028F1D014E000207F49086054
:101C7000FFF762F9054606E0FFF75EF9401B022810
:101C800001D90320F4E677486C300068C0F34000C7
:101C90000028F1D1207800F00400042870D100273A
:101CA00070483830006800F0805090B900BF0020C4
:101CB00000906C483830006840F0805069493831F5
:101CC00008600846006800F08050009000BF00BF28
:101CD00001276748006800F48070B0B96448006864
:101CE00040F4807062490860FFF726F9054606E077
:101CF000FFF722F9401B022801D90320B8E65C480F
:101D0000006800F480700028F2D000BFA0680128AD
:101D100008D154486830006840F0010051496831EA
:101D200008601DE0A06805280DD14E4868300068A5
:101D300040F004004B49683108600846006840F0F4
:101D4000010008600CE047486830006820F001009E
:101D50004449683108600846006820F004000860C3
:101D600000BFA068A8B1FFF7E7F8054609E0FFF754
:101D7000E3F8401B41F28831884202D9032077E61C
:101D800026E0384868300068C0F340000028EED0F4
:101D900013E0FFF7D1F8054608E0FFF7CDF8401B48
:101DA00041F28831884201D9032061E62D4868302C
:101DB0000068C0F340000028EFD1012F07D1294867
:101DC0003830006820F0805026493831086000BF64
:101DD000A069002845D02348006800F00C000828BE
:101DE0005DD0A069022845D100201F490866FFF791
:101DF000A3F8054606E0FFF79FF8401B022801D92B
:101E0000032035E6174808380068C0F34060002812
:101E1000F1D1D4E907010843616A40EA8111012246
:101E2000A06AC2EB500041EA00412C20005D41EA6B
:101E300000600C49091F086001200B490866FFF784
:101E40007BF8054606E0FFF777F8401B022801D92A
:101E500003200DE6034808380068C0F340600028FE
:101E6000F1D049E00838024000004742800E474266
:101E700000700040002021490866FFF75DF8054624
:101E800006E0FFF759F8401B022801D90320EFE5CF
:101E90001B480068C0F340600028F2D12CE0A06924
:101EA000012800D1E4E51648001D0668A069012854
:101EB00020D006F48001E06981421BD106F03F0189
:101EC000206A814216D147F6C0703040616AB0EB9B
:101ED000811F0FD106F440310122A06AC2EB5000ED
:101EE000B1EB004F06D106F070612C20005DB1EB24
:101EF000006F01D00120BBE50020B9E5000047429A
:101F00000038024070B504460D460CB9012070BD82
:101F100094F82C0028B9002084F82D00204600F009
:101F200011F8022084F82C00211D2068FEF781FDA5
:101F30002946D4E90002FEF7E7FD012084F82C00D1
:101F40000020E4E710B586B0044600BF00200090F2
:101F50004348006840F001004149086008460068B5
:101F600000F00100009000BF00BF00BF0020009003
:101F70003B480838006840F00400394908390860D7
:101F80000846006800F00400009000BF00BF00BFDA
:101F9000002000900846006840F0080008600846ED
:101FA000006800F00800009000BF00BF00BF0020E4
:101FB00000900846006840F010000860084600687D
:101FC00000F01000009000BF00BF00BF0020009094
:101FD0000846006840F0200008600846006800F0ED
:101FE0002000009000BF00BF00BF00200090084606
:101FF000006840F0400008600846006800F04000BB
:10200000009000BF00BF0D2001900220029001202F
:102010000390032004900C20059001A91148FEF7BD
:102020006BFE4CF20370019001A90F48FEF764FEAD
:102030004FF68370019001A90C48FEF75DFE4FF644
:102040003F00019001A90A48FEF756FE48F23710FA
:10205000019001A90748FEF74FFE06B010BD000031
:102060003838024000080240000C024000100240D4
:10207000001402400018024070B504460D4694F862
:102080002C00022800D170BD94F82C0001280AD140
:10209000022084F82C0029462068FEF700FD01206C
:1020A00084F82C0001E00120EDE70020EBE72DE9AA
:1020B000F04104460E46174694F82C50022D02D1EA
:1020C0000220BDE8F081012D01D0052D12D10220A2
:1020D00084F82C003A4631462068FEF7EAFC306866
:1020E000022803D1052084F82C0005E0012084F8A3
:1020F0002C0001E00120E4E70020E2E770B504468F
:102100000E4615460CB9012070BD94F8490028B957
:10211000002084F84800204600F020F804F108016F
:102120002068FEF707FC3146A2682068FEF74EFCE7
:102130002946236BD4E90102FEF7DAFBA168206887
:1021400050F8210040F00100A268216841F8220007
:10215000012084F849000020D6E7000010B586B0C1
:10216000044600BF002000902248006840F00100B3
:10217000204908600846006800F00100009000BF98
:1021800000BF00BF002000901A480838006840F0E7
:1021900008001849083908600846006800F008007F
:1021A000009000BF00BF00BF0020009008460068FC
:1021B00040F0100008600846006800F01000009031
:1021C00000BF00BF4EF2B3700190022002900120C8
:1021D0000390022004900C20059001A90648FEF708
:1021E0008BFD4FF68070019001A90448FEF784FD35
:1021F00006B010BD38380240000C0240001002400A
:10220000042808D14FF0E021096941F004014FF0A2
:10221000E022116107E04FF0E021096921F004019B
:102220004FF0E0221161704770B504462546681EE4
:10223000B0F1807F01D301200FE0681E4FF0E02154
:1022400048610F214FF0FF3000F002FF00204FF0F7
:10225000E021886107200861002070BD7047704749
:10226000704710B5044620680069C0F34000D8B13B
:102270002068C068C0F34000B0B16FF00200216870
:102280000861012020772068806900F0030018B100
:102290002046FFF7E5FF05E0204600F0ADF82046B8
:1022A00000F0ABF80020207720680069C0F38000C0
:1022B000D8B12068C068C0F38000B0B16FF00400EE
:1022C00021680861022020772068806900F440704E
:1022D00018B12046FFF7C4FF05E0204600F08CF857
:1022E000204600F08AF80020207720680069C0F3BB
:1022F000C000D8B12068C068C0F3C000B0B16FF0B2
:10230000080021680861042020772068C06900F077
:10231000030018B12046FFF7A3FF05E0204600F0B8
:102320006BF8204600F069F80020207720680069EB
:10233000C0F30010D8B12068C068C0F30010B0B17D
:102340006FF0100021680861082020772068C069BC
:1023500000F4407018B12046FFF782FF05E02046E8
:1023600000F04AF8204600F048F800202077206866
:10237000006900F0010058B12068C06800F0010059
:1023800030B16FF0010021680861204600F036F896
:1023900020680069C0F3C01058B12068C068C0F35D
:1023A000C01030B16FF08000216808612046FFF74F
:1023B00055FF20680069C0F3801058B12068C068DC
:1023C000C0F3801030B16FF04000216808612046F2
:1023D00000F026F820680069C0F3401058B120686A
:1023E000C068C0F3401030B16FF020002168086170
:1023F0002046FFF734FF10BD7047704710B5044604
:1024000005492068884205D100BF01210348FEF735
:1024100083FD00BF10BD000000100040000402401A
:1024200070477047704701460022002391F83D2015
:1024300091F83E3042EA0300704700002DE9F84F62
:102440000446206805682068C668206847694FF020
:102450000009CA4605F00F09B9F1000F0AD105F0CD
:10246000200038B106F0200020B1204600F0D6FB55
:10247000BDE8F88FB9F1000F7CD007F0010018B962
:1024800006F49070002875D005F0010030B106F414
:10249000807018B1206C40F00100206405F0040049
:1024A00030B107F0010018B1206C40F00200206448
:1024B00005F0020030B107F0010018B1206C40F0C7
:1024C0000400206405F0080048B106F0200010B9AF
:1024D00007F0010018B1206C40F008002064206C67
:1024E000002846D005F0200028B106F0200010B1E9
:1024F000204600F093FB20684069C0F3801A206CEE
:1025000000F0080010B9BAF1000F2DD0204600F0FD
:102510003FFB2068406900F04000402820D100BF08
:1025200000BF2168143151E8001F21F040002168EC
:10253000143141E80002002AF3D100BFA06B50B172
:102540007548A16B0865A06BFEF77EFB88B1A06B98
:10255000016D88470DE02046FFF764FF09E009E0C0
:102560002046FFF75FFF04E02046FFF75BFF0020F7
:1025700020647DE7206B012876D105F0100000284B
:1025800072D006F010000028FAD000BF00200090A2
:1025900020680068009020684068009000BF00BF7D
:1025A0002068406900F0400040285ED1A06B0068C0
:1025B00040681FFA80F8B8F1000F54D0A08D404554
:1025C00051DDA4F82E80A06BC069B0F5807F43D0A8
:1025D00000BF00BF21680C3151E8001F21F480705A
:1025E00021680C3141E80002002AF3D100BF00BF8E
:1025F00000BF2168143151E8001F21F0010021685B
:10260000143141E80002002AF3D100BF00BF00BF2F
:102610002168143151E8001F21F040002168143175
:1026200041E80002002AF3D100BF202084F83E00D8
:102630000020206300BF00BF21680C3151E8001F5B
:1026400021F0100021680C3141E80002002AF3D18A
:1026500000BFA06BFEF7A2FAA08DE28D801A81B2B6
:102660002046FFF7DEFE03E740E0A08DE18D401A33
:102670001FFA80F8E08DC0B3B8F1000F35D000BF6D
:1026800000BF21680C3151E8001F21F490702168CF
:102690000C3141E80002002AF3D100BF00BF00BFA7
:1026A0002168143151E8001F21F001002168143124
:1026B00041E80002002AF3D100BF202084F83E0048
:1026C0000020206300BF00BF21680C3151E8001FCB
:1026D00021F0100021680C3141E80002002AF3D1FA
:1026E00000BF41462046FFF79CFEC1E605F0800092
:1026F00030B106F0800018B1204600F046FCB7E685
:1027000005F0400030B106F0400018B1204600F05E
:1027100075FAADE600BFABE67D2B000810B50446A8
:102720000CB9012010BDA06900B100E000BF94F811
:102730003D0028B9002084F83C00204600F028F82D
:10274000242084F83D002068C06820F400502168EF
:10275000C860204600F0DEFA2068006920F490404E
:10276000216808612068406920F02A0021684861DA
:102770002068C06840F400502168C86000202064D0
:10278000202084F83D0084F83E000020CAE70000C5
:1027900010B586B004462E492068884255D100BF46
:1027A00000BF002000902B48006840F0100029492D
:1027B00008600846006800F01000009000BF00BFED
:1027C00000BF00BF00BF00200090224814380068FE
:1027D00040F001001F49143908600846006800F005
:1027E0000100009000BF00BF00BF00BF00BF00207D
:1027F00000900846006840F0010008600846006844
:1028000000F00100009000BF00BF00BF481501901C
:1028100002200290012003900220049007200590DE
:1028200001A90D48FEF768FA4FF480600190072077
:10283000059001A90848FEF75FFA2520FEF7A9FDDB
:10284000032211462520FEF7B4FD06B010BD00009E
:1028500000100140443802400000024070B50446B8
:102860000D46164694F83E00202816D105B10EB943
:10287000012070BD00BF94F83C00012801D1022066
:10288000F7E7012084F83C0000BF002020633246B7
:102890002946204600F054FBEBE70220E9E7000060
:1028A0001D4A0168914236D11C49098801F4004152
:1028B00089BB1A49098801F4804171B11849097826
:1028C0000A2903D00021154A118024E01349098800
:1028D00041F40041114A11801DE0114909780D2988
:1028E00006D10E49098841F480410C4A118012E05A
:1028F0000B490978094A1288C2F30D02094B995411
:1029000006490988491C054A118011460988C729CA
:1029100001DD0021118070470010014018000020E7
:102920001A000020D8000020704700BFFEE7F0B575
:102930008E880768FF68C7F30B473E443304066878
:102940008436802707FB0266766806F470470668BF
:1029500084364FF0800C0CFB026677600E680768C7
:10296000FF68C7F30B473E44761C1E430768843755
:102970000CFB02777E608E890768FF68C7F30A0741
:102980003E44330406688436802707FB0266B66837
:1029900006F47047066884360CFB0266B7608E68E2
:1029A0000768FF68C7F30A073E44761C46EA030738
:1029B000066884360CFB0266B7600668843680279A
:1029C00007FB0266366926F00707066884360CFBAB
:1029D000026637610F69066884360CFB0266376150
:1029E0003126765C33023226765C34040E7E350660
:1029F00006688436802707FB0266B66900270668EA
:102A000084360CFB0266B76191F830601E432643A2
:102A100046EA0507066884360CFB0266B76106685D
:102A20008436802707FB0266766926F0FF07066872
:102A300084360CFB026677614F69066884360CFBAE
:102A40000266776106688436802707FB0266F669AE
:102A500040F20777BE43076884370CFB0277FE61BC
:102A6000D1E907763743066884360CFB0266F761C6
:102A700006688436802707FB0266B66A0027066868
:102A800084360CFB0266B7624F6A066884360CFB1C
:102A90000266B7620E690EB9042313E00E69012EB7
:102AA00001D103230EE00E69042E08D00E69022E18
:102AB00005D00E69032E02D00E69072E01D1022324
:102AC00000E0012306688436802707FB0266F66A69
:102AD00006F0E027066884364FF0800C0CFB026697
:102AE000F762D1E90076F61B5E43F61C0F8D5F435B
:102AF00046EA0747066884360CFB0266F7620668FA
:102B00008436802707FB0266366BF70AFF020668E9
:102B100084360CFB02663763CF6A066884360CFB8A
:102B20000266376306688436D701F65946F0010716
:102B3000066884364FEAC21C46F80C70F0BD00BF30
:102B4000FEE7704710B5FEF7FDF905F01DFF0128FF
:102B500001D005F0E3FC10BD0348006840F47000AC
:102B6000014908607047000088ED00E010B5024898
:102B7000FFF777FB10BD00008003002070B505460D
:102B8000AC6B0020E085E0842046FFF74BFC70BD75
:102B900000BF00BF02680C3252E8002F22F490718F
:102BA00002680C3242E80013002BF3D100BF00BFD3
:102BB00000BF0268143252E8002F22F001010268BF
:102BC000143242E80013002BF3D100BF016B01293E
:102BD0000ED100BF00BF02680C3252E8002F22F075
:102BE000100102680C3242E80013002BF3D100BF41
:102BF000202180F83E1000210163704710B5044683
:102C00002068C06820F040002168C860202084F857
:102C10003D002046FFF788FE002010BDF8B50446B1
:102C200094F83E00222873D1A068B0F5805F0CD1E3
:102C3000206950B90025A66A20684068C0F30800E2
:102C40003080A06A801CA06215E0A56A0026A068FA
:102C5000B0F5805F03D0A06828B9206918B9206852
:102C60004068287004E02068406800F07F00287009
:102C7000A06A401CA062E08D401E80B2E085002862
:102C800044D12068C06820F020002168C860206816
:102C9000C06820F480702168C8602068406920F016
:102CA000010021684861202084F83E00206B012843
:102CB00026D10020206300BF00BF21680C3151E8FD
:102CC000001F21F0100021680C3141E80002002AA9
:102CD000F3D100BF2068006800F0100010280AD16E
:102CE00000BF0020009020680068009020684068C5
:102CF000009000BF00BFA18D2046FFF792FB02E0CD
:102D00002046FFF7CDFD0020F8BD01E00020FBE7E5
:102D10000220F9E72DE9F84F04462068006920F405
:102D20004050E1680843216808612169A0680843B0
:102D300061690843E169084300902068C06849F26E
:102D40000C618843009908432168C8602068406985
:102D500020F44070A16908432168486176492068E1
:102D6000884203D075492068884203D1FEF714FEDB
:102D7000814602E0FEF700FE8146E069B0F5004FB3
:102D80006CD102206168A0FB015003461920A9FB09
:102D9000007001462A463846FDF7E1FA6421B0FB8F
:102DA000F1F04FEA001A02206168A0FB01510B46C6
:102DB0001920A9FB00712A463846FDF7D0FA834650
:102DC00002206168A0FB015003461920A9FB007195
:102DD0002A463846FDF7C3FA6421B0FBF1F000EB58
:102DE000C00101EB0010ABEB8000322101EBC00011
:102DF0006421B0FBF1F000F0F8000AEB400A022079
:102E00006168A0FB015003461920A9FB0070014630
:102E10002A463846FDF7A3FA834602206168A0FBE4
:102E2000015003461920A9FB00712A463846FDF7D8
:102E300096FA6421B0FBF1F000EBC00101EB001049
:102E4000ABEB8000322101EBC0006421B0FBF1F05C
:102E500000F007005044216888606AE0042061683F
:102E6000A0FB015003461920A9FB007001462A4629
:102E70003846FDF774FA824604206168A0FB0150D1
:102E800003461920A9FB007001462A463846FDF783
:102E900066FA6421B0FBF1F000EBC00101EB001019
:102EA000AAEB8000322101EB00106421B0FBF1F0AD
:102EB00000F0F00A04206168A0FB017003461920AD
:102EC000A9FB00513A462846FDF749FA6421B0FBB8
:102ED000F1F00AEB001A04206168A0FB01510B46D7
:102EE0001920A9FB00712A463846FDF738FA8346B7
:102EF00004206168A0FB015003461920A9FB007063
:102F000001462A463846FDF72AFA6421B0FBF1F063
:102F100000EBC00101EB0010ABEB8000322101EBB4
:102F200000106421B0FBF1F000F00F005044216864
:102F30008860BDE8F88F00000010014000140140D7
:102F400010B5034699629A85DA850020186422201C
:102F500083F83E0000BF002083F83C0000BF1869E2
:102F600028B11868C06840F480701C68E060186878
:102F7000406940F001001C6860611868C06840F05A
:102F800020001C68E060002010BD014691F83D0063
:102F9000212828D18868B0F5805F0BD1086948B92D
:102FA0000A6A1088C0F308000B685860086A801C21
:102FB000086205E00B6A581C086218780B685860B4
:102FC000C88C401E80B2C88458B90868C06820F018
:102FD00080000B68D8600868C06840F040000B684B
:102FE000D860002070470220FCE7000070B5002484
:102FF0000F4D1048FFF722FA00BF03E0641CAC42FB
:1030000000D904E00B48FFF70EFA2028F6D100BFE4
:10301000002403E0641CAC4200D906E0012206490A
:103020000448FFF71BFC0028F4D100BF70BD00006E
:10303000FFFF0100A00100201A00002000BFFEE7F2
:1030400002480068C0F30220704700000CED00E069
:1030500010B5002804DB0A07130E054A135406E0D6
:103060000A07140E034A00F00F031B1FD45410BDAF
:1030700000E400E018ED00E000BF704770B50446C2
:103080000420FFF7BDF80A48046025464FF47A7023
:1030900045434FF0E020006940F002004FF0E0218E
:1030A000086108464561006940F00100086170BD93
:1030B0001C00002030B50446002504E04FF47A706F
:1030C00000F004F86D1CA542F8D330BD70B503467E
:1030D00000224FF0E02675690D4E366803FB06F4BA
:1030E0004FF0E026B16910E04FF0E026B069884269
:1030F0000BD0884202D20E1A324402E02E1A0E443D
:1031000032440146A24200D300E0EDE700BF70BDAB
:103110001C00002000B585B000F03EF84FF40050D0
:1031200000904FF404100190012002906946064877
:10313000FDF7E2FD002205212820FEF73AF92820BC
:10314000FEF727F905B000BD0008024000BF054AA0
:10315000126802F04002002AF9D0C2B2014B5A6054
:1031600070470000001001401CB5064801210023F3
:103170008022CDE9001004A1064805F0D5FB04F03B
:103180009BFF1CBD0400002073746172745F746146
:10319000736B00007D76000800B587B000BF00BFEC
:1031A000002001903948006840F0800037490860ED
:1031B0000846006800F08000019000BF00BF00BF1B
:1031C00000BF00BF002001900846006840F080006A
:1031D00008600846006800F08000019000BF00BF52
:1031E00000BF00BF00BF002001900846006840F00B
:1031F000040008600846006800F00400019000BF69
:1032000000BF00BF00BF00BF00200190084600685B
:1032100040F0010008600846006800F001000190DD
:1032200000BF00BF00BF08200290002003900120D3
:1032300004900220059002A91548FDF75DFD0420C9
:10324000029000200390012004900220059002A922
:103250000F48FDF751FD4FF40050029000200390FD
:10326000012004900220059002A90A48FDF744FDC0
:10327000012002900020039002200490059002A9F2
:103280000548FDF739FD07B000BD000030380240A9
:10329000001C0240000802400000024070B50446D5
:1032A000002514B101202C4908702B480078002813
:1032B00036D008212948FDF727FE80B10421274890
:1032C000FDF722FE58B14FF400512548FDF71CFED2
:1032D00028B101212348FDF717FE012820D10A203B
:1032E000FFF7E8FE00201C49087008211B48FDF785
:1032F0000BFE00B9012504211848FDF705FE00B9B1
:1033000002254FF400511648FDF7FEFD00B90325D4
:1033100001211448FDF7F8FD01281BD1042519E00F
:1033200008210E48FDF7F0FD012813D104210B48B8
:10333000FDF7EAFD01280DD141030948FDF7E4FD41
:10334000012807D101210748FDF7DEFD10B9012052
:1033500001490870284670BD29000020001C024069
:10336000000802400000024070B5044600260D48E7
:1033700005880D48006818B1204602F0CBFE0FE02A
:103380000848408845430021084602F08FFD02F0BE
:1033900065FE002602E005480480761CAE42FAD3A2
:1033A00070BD0000340200202C03002000000860E3
:1033B00010B50446504884715048006850B120460A
:1033C00002F0CEFE4D48C08A4B4908804B48008B26
:1033D000488010BD002C45D1F020474908804FF4AB
:1033E000A07048800846808845F21051884210D16C
:1033F0004FF43050404908814FF4285048814FF431
:103400002C5088814FF4F07008804FF44870488049
:103410001AE03948808841F6631188420DD12C208A
:10342000354908812B2048812A2088814FF4F0708B
:1034300008804FF44870488006E02C202E4908810F
:103440002A2048812B2088812B48808845F2103122
:1034500088424CD14FF4A070274908804FF4F07097
:10346000488044E04FF4A07023490880F020488051
:103470000846808845F21051884210D14FF43050F0
:103480001D4908814FF4285048814FF42C50888101
:103490004FF4487008804FF4F07048801AE01648E6
:1034A000808841F6631188420DD12C201249088191
:1034B0002A2048812B2088814FF4487008804FF4DF
:1034C000F070488006E02C200B4908812A204881B2
:1034D0002B2088810848808845F21031884206D127
:1034E0004FF4F070044908804FF4A0704880002029
:1034F00002F0C4FB00BF6CE7340200202C03002064
:1035000010B5CF2002F09EFD002002F08FFDC120FB
:1035100002F08CFD302002F089FDED2002F092FDDA
:10352000642002F083FD032002F080FD122002F0EF
:103530007DFD812002F07AFDE82002F083FD8520E8
:1035400002F074FD102002F071FD7A2002F06EFD91
:10355000CB2002F077FD392002F068FD2C2002F02C
:1035600065FD002002F062FD342002F05FFD0220C4
:1035700002F05CFDF72002F065FD202002F056FD10
:10358000EA2002F05FFD002002F050FD002002F072
:103590004DFDC02002F056FD1B2002F047FDC1206A
:1035A00002F050FD012002F041FDC52002F04AFD6D
:1035B000302002F03BFD302002F038FDC72002F041
:1035C00041FDB72002F032FD362002F03BFD4820DD
:1035D00002F02CFD3A2002F035FD552002F026FDC8
:1035E000B12002F02FFD002002F020FD1A2002F091
:1035F0001DFDB62002F026FD0A2002F017FDA220D4
:1036000002F014FDF22002F01DFD002002F00EFD7C
:10361000262002F017FD012002F008FDE02002F054
:1036200011FD0F2002F002FD2A2002F0FFFC2820ED
:1036300002F0FCFC082002F0F9FC0E2002F0F6FC7F
:10364000082002F0F3FC542002F0F0FCA92002F064
:10365000EDFC432002F0EAFC0A2002F0E7FC0F2018
:1036600002F0E4FC002002F0E1FC002002F0DEFCAD
:10367000002002F0DBFC002002F0D8FCE12002F088
:10368000E1FC002002F0D2FC152002F0CFFC172054
:1036900002F0CCFC072002F0C9FC112002F0C6FCAD
:1036A000062002F0C3FC2B2002F0C0FC562002F0E2
:1036B000BDFC3C2002F0BAFC052002F0B7FC102053
:1036C00002F0B4FC0F2002F0B1FC3F2002F0AEFC8F
:1036D0003F2002F0ABFC0F2002F0A8FC2B2002F0F0
:1036E000B1FC002002F0A2FC002002F09FFC0120AF
:1036F00002F09CFC3F2002F099FC2A2002F0A2FC80
:10370000002002F093FC002002F090FC002002F068
:103710008DFCEF2002F08AFC112002F093FC78204F
:10372000FFF7C8FC292002F08DFC10BD10B5ED207C
:1037300002F088FC012002F079FCFE2002F076FC09
:10374000EE2002F07FFCDE2002F070FC212002F06F
:103750006DFCF12002F076FC012002F067FCDF2016
:1037600002F070FC102002F061FCC42002F06AFC40
:103770008F2002F05BFCC62002F064FC002002F007
:1037800055FCE22002F052FCE22002F04FFCE22065
:1037900002F04CFCBF2002F055FCAA2002F046FCCF
:1037A000B02002F04FFC0D2002F040FC002002F09F
:1037B0003DFC0D2002F03AFC002002F037FC112005
:1037C00002F034FC002002F031FC192002F02EFC43
:1037D000002002F02BFC212002F028FC002002F047
:1037E00025FC2D2002F022FC002002F01FFC3D20D1
:1037F00002F01CFC002002F019FC5D2002F016FC17
:10380000002002F013FC5D2002F010FC002002F00A
:103810000DFCB12002F016FC802002F007FC002015
:1038200002F004FC8B2002F001FC002002F0FEFB01
:10383000962002F0FBFB002002F0F8FBB22002F021
:1038400001FC002002F0F2FB002002F0EFFB02205E
:1038500002F0ECFB002002F0E9FB032002F0E6FBA3
:10386000002002F0E3FBB32002F0ECFB002002F0AA
:10387000DDFB002002F0DAFB002002F0D7FB002085
:1038800002F0D4FB002002F0D1FB002002F0CEFBBE
:10389000002002F0CBFB002002F0C8FB002002F069
:1038A000C5FB002002F0C2FB002002F0BFFB00209D
:1038B00002F0BCFB002002F0B9FB002002F0B6FBD6
:1038C000002002F0B3FB002002F0B0FB002002F069
:1038D000ADFB002002F0AAFB002002F0A7FB0020B5
:1038E00002F0A4FB002002F0A1FB002002F09EFBEE
:1038F000002002F09BFB002002F098FBB42002F0B5
:10390000A1FB8B2002F092FB002002F08FFB96209F
:1039100002F08CFB002002F089FBA12002F086FB64
:10392000002002F083FBB52002F08CFB022002F0A5
:103930007DFB002002F07AFB032002F077FB0020E1
:1039400002F074FB042002F071FB002002F06EFB19
:10395000B62002F077FB002002F068FB002002F0A6
:1039600065FBB72002F06EFB002002F05FFB002039
:1039700002F05CFB3F2002F059FB002002F056FBF6
:103980005E2002F053FB002002F050FB642002F0A6
:103990004DFB002002F04AFB8C2002F047FB002088
:1039A00002F044FBAC2002F041FB002002F03EFBA1
:1039B000DC2002F03BFB002002F038FB702002F01C
:1039C00035FB002002F032FB902002F02FFB00209C
:1039D00002F02CFBEB2002F029FB002002F026FB7A
:1039E000DC2002F023FB002002F020FBB82002F0D4
:1039F00029FB002002F01AFB002002F017FB002038
:103A000002F014FB002002F011FB002002F00EFB7C
:103A1000002002F00BFB002002F008FB002002F067
:103A200005FBBA2002F00EFB242002F0FFFA002072
:103A300002F0FCFA002002F0F9FA002002F0F6FA97
:103A4000C12002F0FFFA202002F0F0FA002002F07C
:103A5000EDFA542002F0EAFA002002F0E7FAFF2023
:103A600002F0E4FA002002F0E1FAC22002F0EAFAE1
:103A70000A2002F0DBFA002002F0D8FA042002F05B
:103A8000D5FA002002F0D2FAC32002F0DBFA3C2083
:103A900002F0CCFA002002F0C9FA3A2002F0C6FA8D
:103AA000002002F0C3FA392002F0C0FA002002F030
:103AB000BDFA372002F0BAFA002002F0B7FA3C2033
:103AC00002F0B4FA002002F0B1FA362002F0AEFAA9
:103AD000002002F0ABFA322002F0A8FA002002F037
:103AE000A5FA2F2002F0A2FA002002F09FFA2C2063
:103AF00002F09CFA002002F099FA292002F096FACE
:103B0000002002F093FA262002F090FA002002F042
:103B10008DFA242002F08AFA002002F087FA24208D
:103B200002F084FA002002F081FA232002F07EFAEB
:103B3000002002F07BFA3C2002F078FA002002F02C
:103B400075FA362002F072FA002002F06FFA322085
:103B500002F06CFA002002F069FA2F2002F066FAF7
:103B6000002002F063FA2C2002F060FA002002F03C
:103B70005DFA292002F05AFA002002F057FA2620B6
:103B800002F054FA002002F051FA242002F04EFA1A
:103B9000002002F04BFA242002F048FA002002F044
:103BA00045FA232002F042FA002002F03FFAC42036
:103BB00002F048FA622002F039FA002002F036FAE8
:103BC000052002F033FA002002F030FA842002F0DF
:103BD0002DFA002002F02AFAF02002F027FA002045
:103BE00002F024FA182002F021FA002002F01EFA56
:103BF000A42002F01BFA002002F018FA182002F0AC
:103C000015FA002002F012FA502002F00FFA0020FC
:103C100002F00CFA0C2002F009FA002002F006FA79
:103C2000172002F003FA002002F000FA952002F0BB
:103C3000FDF9002002F0FAF9F32002F0F7F9002074
:103C400002F0F4F9E62002F0F1F9002002F0EEF9BA
:103C5000C52002F0F7F9322002F0E8F9002002F066
:103C6000E5F9442002F0E2F9002002F0DFF96520D6
:103C700002F0DCF9002002F0D9F9762002F0D6F942
:103C8000002002F0D3F9882002F0D0F9002002F0E1
:103C9000CDF9C62002F0D6F9202002F0C7F90020A5
:103CA00002F0C4F9172002F0C1F9002002F0BEF9B9
:103CB000012002F0BBF9002002F0B8F9C72002F0A1
:103CC000C1F9002002F0B2F9002002F0AFF90020A3
:103CD00002F0ACF9002002F0A9F9C82002F0B2F914
:103CE000002002F0A3F9002002F0A0F9002002F069
:103CF0009DF9002002F09AF9C92002F0A3F90020F2
:103D000002F094F9002002F091F9002002F08EF9FF
:103D1000002002F08BF9002002F088F9002002F068
:103D200085F9002002F082F9002002F07FF90020DE
:103D300002F07CF9002002F079F9002002F076F917
:103D4000002002F073F9002002F070F9002002F068
:103D50006DF9002002F06AF9002002F067F9E02016
:103D600002F070F9162002F061F9002002F05EF90D
:103D70001C2002F05BF9002002F058F9212002F02B
:103D800055F9002002F052F9362002F04FF90020D8
:103D900002F04CF9462002F049F9002002F046F901
:103DA000522002F043F9002002F040F9642002F0B2
:103DB0003DF9002002F03AF97A2002F037F90020AC
:103DC00002F034F98B2002F031F9002002F02EF9D4
:103DD000992002F02BF9002002F028F9A82002F027
:103DE00025F9002002F022F9B92002F01FF9002085
:103DF00002F01CF9C42002F019F9002002F016F9B3
:103E0000CA2002F013F9002002F010F9D22002F0CB
:103E10000DF9002002F00AF9D92002F007F900207C
:103E200002F004F9E02002F001F9002002F0FEF8AF
:103E3000F32002F0FBF8002002F0F8F8E12002F095
:103E400001F9162002F0F2F8002002F0EFF81C2031
:103E500002F0ECF8002002F0E9F8222002F0E6F887
:103E6000002002F0E3F8362002F0E0F8002002F033
:103E7000DDF8452002F0DAF8002002F0D7F85220F1
:103E800002F0D4F8002002F0D1F8642002F0CEF85D
:103E9000002002F0CBF87A2002F0C8F8002002F0EF
:103EA000C5F88B2002F0C2F8002002F0BFF899207C
:103EB00002F0BCF8002002F0B9F8A82002F0B6F831
:103EC000002002F0B3F8B92002F0B0F8002002F0B0
:103ED000ADF8C42002F0AAF8002002F0A7F8CA202A
:103EE00002F0A4F8002002F0A1F8D22002F09EF81F
:103EF000002002F09BF8D82002F098F8002002F091
:103F000095F8E02002F092F8002002F08FF8F320FC
:103F100002F08CF8002002F089F8E22002F092F81A
:103F2000052002F083F8002002F080F80B2002F058
:103F30007DF8002002F07AF81B2002F077F80020CC
:103F400002F074F8342002F071F8002002F06EF8EC
:103F5000442002F06BF8002002F068F84F2002F0D5
:103F600065F8002002F062F8612002F05FF800209E
:103F700002F05CF8792002F059F8002002F056F8BF
:103F8000882002F053F8002002F050F8972002F049
:103F90004DF8002002F04AF8A62002F047F8002071
:103FA00002F044F8B72002F041F8002002F03EF899
:103FB000C22002F03BF8002002F038F8C72002F0DF
:103FC00035F8002002F032F8D12002F02FF800205E
:103FD00002F02CF8D62002F029F8002002F026F892
:103FE000DD2002F023F8002002F020F8F32002F098
:103FF0001DF8002002F01AF8E32002F023F8052053
:1040000002F014F8002002F011F80A2002F00EF875
:10401000002002F00BF81C2002F008F8002002F04B
:1040200005F8332002F002F8002001F0FFFF4420E1
:1040300001F0FCFF002001F0F9FF502001F0F6FF35
:10404000002001F0F3FF622001F0F0FF002001F0FA
:10405000EDFF782001F0EAFF002001F0E7FF882063
:1040600001F0E4FF002001F0E1FF972001F0DEFF06
:10407000002001F0DBFFA62001F0D8FF002001F0B6
:10408000D5FFB72001F0D2FF002001F0CFFFC22002
:1040900001F0CCFF002001F0C9FFC72001F0C6FFEE
:1040A000002001F0C3FFD12001F0C0FF002001F08B
:1040B000BDFFD52001F0BAFF002001F0B7FFDD20E1
:1040C00001F0B4FF002001F0B1FFF32001F0AEFFDA
:1040D000002001F0ABFFE42001F0B4FF012001F06B
:1040E000A5FF002001F0A2FF012001F09FFF0020AA
:1040F00001F09CFF022001F099FF002001F096FFE3
:104100002A2001F093FF002001F090FF3C2001F0F5
:104110008DFF002001F08AFF4B2001F087FF002077
:1041200001F084FF5D2001F081FF002001F07EFF9F
:10413000742001F07BFF002001F078FF842001F063
:1041400075FF002001F072FF932001F06FFF002047
:1041500001F06CFFA22001F069FF002001F066FF72
:10416000B32001F063FF002001F060FFBE2001F0EA
:104170005DFF002001F05AFFC42001F057FF00202E
:1041800001F054FFCD2001F051FF002001F04EFF5F
:10419000D32001F04BFF002001F048FFDD2001F0AB
:1041A00045FF002001F042FFF32001F03FFF002017
:1041B00001F03CFFE52001F045FF002001F036FF53
:1041C000002001F033FF002001F030FF002001F05B
:1041D0002DFF022001F02AFF002001F027FF2920F7
:1041E00001F024FF002001F021FF3C2001F01EFF20
:1041F000002001F01BFF4B2001F018FF002001F010
:1042000015FF5D2001F012FF002001F00FFF742068
:1042100001F00CFF002001F009FF842001F006FFEF
:10422000002001F003FF932001F000FF002001F0C7
:10423000FDFEA22001F0FAFE002001F0F7FEB320FF
:1042400001F0F4FE002001F0F1FEBE2001F0EEFED0
:10425000002001F0EBFEC42001F0E8FE002001F098
:10426000E5FECD2001F0E2FE002001F0DFFED320CC
:1042700001F0DCFE002001F0D9FEDC2001F0D6FECA
:10428000002001F0D3FEF32001F0D0FE002001F069
:10429000CDFEE62001F0D6FE112001F0C7FE002081
:1042A00001F0C4FE342001F0C1FE002001F0BEFE8A
:1042B000562001F0BBFE002001F0B8FE762001F090
:1042C000B5FE002001F0B2FE772001F0AFFE002025
:1042D00001F0ACFE662001F0A9FE002001F0A6FE70
:1042E000882001F0A3FE002001F0A0FE992001F03B
:1042F0009DFE002001F09AFEBB2001F097FE0020F9
:1043000001F094FE992001F091FE002001F08EFE54
:10431000662001F08BFE002001F088FE552001F0A0
:1043200085FE002001F082FE552001F07FFE002076
:1043300001F07CFE452001F079FE002001F076FEC0
:10434000432001F073FE002001F070FE442001F0D4
:104350006DFE002001F06AFEE72001F073FE3220BE
:1043600001F064FE002001F061FE552001F05EFEC8
:10437000002001F05BFE762001F058FE002001F0E5
:1043800055FE662001F052FE002001F04FFE67202E
:1043900001F04CFE002001F049FE672001F046FECE
:1043A000002001F043FE872001F040FE002001F0D4
:1043B0003DFE992001F03AFE002001F037FEBB20BF
:1043C00001F034FE002001F031FE992001F02EFEB4
:1043D000002001F02BFE772001F028FE002001F0E4
:1043E00025FE442001F022FE002001F01FFE562091
:1043F00001F01CFE002001F019FE232001F016FE42
:10440000002001F013FE332001F010FE002001F027
:104410000DFE452001F00AFE002001F007FEE82015
:1044200001F010FE002001F001FE002001F0FEFD71
:10443000992001F0FBFD002001F0F8FD872001F03C
:10444000F5FD002001F0F2FD882001F0EFFD0020D5
:1044500001F0ECFD772001F0E9FD002001F0E6FD20
:10446000662001F0E3FD002001F0E0FD882001F06E
:10447000DDFD002001F0DAFDAA2001F0D7FD0020CB
:1044800001F0D4FDBB2001F0D1FD002001F0CEFDF4
:10449000992001F0CBFD002001F0C8FD662001F05D
:1044A000C5FD002001F0C2FD552001F0BFFD002038
:1044B00001F0BCFD552001F0B9FD002001F0B6FD72
:1044C000442001F0B3FD002001F0B0FD442001F0D4
:1044D000ADFD002001F0AAFD552001F0A7FD002050
:1044E00001F0A4FDE92001F0ADFDAA2001F09EFD40
:1044F000002001F09BFD002001F098FD002001F05C
:1045000095FD002001F09EFDAA2001F08FFDCF2037
:1045100001F098FD002001F089FD002001F086FDEA
:10452000002001F083FD002001F080FD002001F05B
:104530007DFD002001F07AFD002001F077FD0020D4
:1045400001F074FD002001F071FD002001F06EFD0E
:10455000002001F06BFD002001F068FD002001F05B
:1045600065FD002001F062FD002001F05FFD0020EC
:1045700001F05CFD002001F059FDF02001F062FD2A
:10458000002001F053FD502001F050FD002001F00B
:104590004DFD002001F04AFD002001F047FDF32011
:1045A00001F050FD002001F041FDF92001F04AFD2D
:1045B000062001F03BFD102001F038FD292001F01C
:1045C00035FD002001F032FD3A2001F03BFD552081
:1045D00001F02CFD112001F035FD6420FEF76AFD8D
:1045E000292001F02FFD352001F02CFD002001F0E5
:1045F0001DFD512001F026FDFF2001F017FD532085
:1046000001F020FD2C2001F011FD552001F01AFDD4
:10461000822001F00BFD2C2001F014FD10BD10B51F
:1046200055214FF4704001F023FDAA214FF2010003
:1046300001F01EFD52214FF2020001F019FD082188
:104640004FF2030001F014FD01214FF2040001F0CC
:104650000FFD0D214FF4304001F00AFD0D214BF20A
:10466000010001F005FD0D214BF2020001F000FDFB
:1046700034214FF4364001F0FBFC34214BF2016051
:1046800001F0F6FC34214BF2026001F0F1FC0D2147
:104690004FF4314001F0ECFC0D214BF2011001F020
:1046A000E7FC0D214BF2021001F0E2FC34214FF443
:1046B000374001F0DDFC34214BF2017001F0D8FCF1
:1046C00034214BF2027001F0D3FC00214FF4324050
:1046D00001F0CEFC00214BF2012001F0C9FC0021C9
:1046E0004BF2022001F0C4FC24214FF4384001F0C9
:1046F000BFFC24214BF6010001F0BAFC24214BF64B
:10470000020001F0B5FC01214FF43F4001F0B0FC84
:104710000F214FF4334001F0ABFC0F214BF201307D
:1047200001F0A6FC0F214BF2023001F0A1FC342174
:104730004FF4394001F09CFC34214BF6011001F09C
:1047400097FC34214BF6021001F092FC08214FF443
:10475000354001F08DFC08214BF2015001F088FC3E
:1047600008214BF2025001F083FC03214FF4424038
:1047700001F07EFC24214FF43A4001F079FC242121
:104780004BF6012001F074FC24214BF6022001F0CD
:104790006FFC00214FF43C4001F06AFC78214BF69D
:1047A000014001F065FC00214BF6024001F060FC85
:1047B00000214FF43D4001F05BFC78214BF60150A5
:1047C00001F056FC00214BF6025001F051FC002193
:1047D0004FF43E4001F04CFC64214BF6016001F0C7
:1047E00047FC00214FF4514001F042FC33214DF2CF
:1047F000011001F03DFC00214DF2021001F038FCE7
:1048000034214DF2031001F033FC00214DF204106D
:1048100001F02EFC3A214DF2051001F029FC002197
:104820004DF2061001F024FC4A214DF2071001F070
:104830001FFC00214DF2081001F01AFC5C214DF222
:10484000091001F015FC00214DF20A1001F010FCD6
:1048500081214DF20B1001F00BFC00214DF20C10E8
:1048600001F006FCA6214DF20D1001F001FC002123
:104870004DF20E1001F0FCFBE5214DF20F1001F09E
:10488000F7FB01214DF2101001F0F2FB13214DF264
:10489000111001F0EDFB01214DF2121001F0E8FBC7
:1048A00054214DF2131001F0E3FB01214DF21410DD
:1048B00001F0DEFB82214DF2151001F0D9FB012140
:1048C0004DF2161001F0D4FBCA214DF2171001F081
:1048D000CFFB02214DF2181001F0CAFB00214DF26E
:1048E000191001F0C5FB02214DF21A1001F0C0FBB6
:1048F00001214DF21B1001F0BBFB02214DF21C10F7
:1049000001F0B6FB34214DF21D1001F0B1FB022184
:104910004DF21E1001F0ACFB67214DF21F1001F0AB
:10492000A7FB02214DF2201001F0A2FB84214DF2E1
:10493000211001F09DFB02214DF2221001F098FBA5
:10494000A4214DF2231001F093FB02214DF224101B
:1049500001F08EFBB7214DF2251001F089FB0221F9
:104960004DF2261001F084FBCF214DF2271001F00B
:104970007FFB02214DF2281001F07AFBDE214DF27F
:10498000291001F075FB02214DF22A1001F070FB95
:10499000F2214DF22B1001F06BFB02214DF22C1095
:1049A00001F066FBFE214DF22D1001F061FB0321A9
:1049B0004DF22E1001F05CFB10214DF22F1001F092
:1049C00057FB03214DF2301001F052FB33214DF221
:1049D000311001F04DFB03214DF2321001F048FB84
:1049E0006D214DF2331001F043FB00214FF4524092
:1049F00001F03EFB33214DF2012001F039FB002193
:104A00004DF2022001F034FB34214DF2032001F07D
:104A10002FFB00214DF2042001F02AFB3A214DF238
:104A2000052001F025FB00214DF2062001F020FBBE
:104A30004A214DF2072001F01BFB00214DF2082016
:104A400001F016FB5C214DF2092001F011FB002161
:104A50004DF20A2001F00CFB81214DF20B2001F0F8
:104A600007FB00214DF20C2001F002FBA6214DF2C4
:104A70000D2001F0FDFA00214DF20E2001F0F8FAB0
:104A8000E5214DF20F2001F0F3FA01214DF2102043
:104A900001F0EEFA13214DF2112001F0E9FA0121A3
:104AA0004DF2122001F0E4FA54214DF2132001F0EE
:104AB000DFFA01214DF2142001F0DAFA82214DF2E1
:104AC000152001F0D5FA01214DF2162001F0D0FA9F
:104AD000CA214DF2172001F0CBFA02214DF2182025
:104AE00001F0C6FA00214DF2192001F0C1FA0221AD
:104AF0004DF21A2001F0BCFA01214DF21B2001F009
:104B0000B7FA02214DF21C2001F0B2FA34214DF225
:104B10001D2001F0ADFA02214DF21E2001F0A8FA8D
:104B200067214DF21F2001F0A3FA02214DF220204F
:104B300001F09EFA84214DF2212001F099FA022120
:104B40004DF2222001F094FAA4214DF2232001F02D
:104B50008FFA02214DF2242001F08AFAB7214DF29A
:104B6000252001F085FA02214DF2262001F080FA7D
:104B7000CF214DF2272001F07BFA02214DF22820AF
:104B800001F076FADE214DF2292001F071FA0221BE
:104B90004DF22A2001F06CFAF2214DF22B2001F0A7
:104BA00067FA02214DF22C2001F062FAFE214DF24B
:104BB0002D2001F05DFA03214DF22E2001F058FA6C
:104BC00010214DF22F2001F053FA03214DF2302035
:104BD00001F04EFA33214DF2312001F049FA032160
:104BE0004DF2322001F044FA6D214DF2332001F0F4
:104BF0003FFA00214FF4534001F03AFA33214DF2CD
:104C0000013001F035FA00214DF2023001F030FAA6
:104C100034214DF2033001F02BFA00214DF2043023
:104C200001F026FA3A214DF2053001F021FA002177
:104C30004DF2063001F01CFA4A214DF2073001F026
:104C400017FA00214DF2083001F012FA5C214DF202
:104C5000093001F00DFA00214DF20A3001F008FA96
:104C600081214DF20B3001F003FA00214DF20C309E
:104C700001F0FEF9A6214DF20D3001F0F9F9002105
:104C80004DF20E3001F0F4F9E5214DF20F3001F054
:104C9000EFF901214DF2103001F0EAF913214DF244
:104CA000113001F0E5F901214DF2123001F0E0F987
:104CB00054214DF2133001F0DBF901214DF2143093
:104CC00001F0D6F982214DF2153001F0D1F9012120
:104CD0004DF2163001F0CCF9CA214DF2173001F037
:104CE000C7F902214DF2183001F0C2F900214DF24E
:104CF000193001F0BDF902214DF21A3001F0B8F976
:104D000001214DF21B3001F0B3F902214DF21C30AC
:104D100001F0AEF934214DF21D3001F0A9F9022164
:104D20004DF21E3001F0A4F967214DF21F3001F061
:104D30009FF902214DF2203001F09AF984214DF2C1
:104D4000213001F095F902214DF2223001F090F965
:104D5000A4214DF2233001F08BF902214DF22430D1
:104D600001F086F9B7214DF2253001F081F90221D9
:104D70004DF2263001F07CF9CF214DF2273001F0C1
:104D800077F902214DF2283001F072F9DE214DF25F
:104D9000293001F06DF902214DF22A3001F068F955
:104DA000F2214DF22B3001F063F902214DF22C304B
:104DB00001F05EF9FE214DF22D3001F059F9032189
:104DC0004DF22E3001F054F910214DF22F3001F048
:104DD0004FF903214DF2303001F04AF933214DF201
:104DE000313001F045F903214DF2323001F040F944
:104DF0006D214DF2333001F03BF900214FF4544066
:104E000001F036F933214DF2014001F031F9002172
:104E10004DF2024001F02CF934214DF2034001F033
:104E200027F900214DF2044001F022F93A214DF218
:104E3000054001F01DF900214DF2064001F018F97E
:104E40004A214DF2074001F013F900214DF20840CC
:104E500001F00EF95C214DF2094001F009F9002141
:104E60004DF20A4001F004F981214DF20B4001F0AE
:104E7000FFF800214DF20C4001F0FAF8A6214DF2A6
:104E80000D4001F0F5F800214DF20E4001F0F0F870
:104E9000E5214DF20F4001F0EBF801214DF21040F9
:104EA00001F0E6F813214DF2114001F0E1F8012183
:104EB0004DF2124001F0DCF854214DF2134001F0A4
:104EC000D7F801214DF2144001F0D2F882214DF2C1
:104ED000154001F0CDF801214DF2164001F0C8F85F
:104EE000CA214DF2174001F0C3F802214DF21840DB
:104EF00001F0BEF800214DF2194001F0B9F802218D
:104F00004DF21A4001F0B4F801214DF21B4001F0BE
:104F1000AFF802214DF21C4001F0AAF834214DF205
:104F20001D4001F0A5F802214DF21E4001F0A0F84D
:104F300067214DF21F4001F09BF802214DF2204005
:104F400001F096F884214DF2214001F091F8022100
:104F50004DF2224001F08CF8A4214DF2234001F0E3
:104F600087F802214DF2244001F082F8B7214DF27A
:104F7000254001F07DF802214DF2264001F078F83D
:104F8000CF214DF2274001F073F802214DF2284065
:104F900001F06EF8DE214DF2294001F069F802219E
:104FA0004DF22A4001F064F8F2214DF22B4001F05D
:104FB0005FF802214DF22C4001F05AF8FE214DF22B
:104FC0002D4001F055F803214DF22E4001F050F82C
:104FD00010214DF22F4001F04BF803214DF23040EB
:104FE00001F046F833214DF2314001F041F8032140
:104FF0004DF2324001F03CF86D214DF2334001F0AA
:1050000037F800214FF4554001F032F833214DF2CA
:10501000015001F02DF800214DF2025001F028F866
:1050200034214DF2035001F023F800214DF20450D9
:1050300001F01EF83A214DF2055001F019F8002157
:105040004DF2065001F014F84A214DF2075001F0DC
:105050000FF800214DF2085001F00AF85C214DF2E2
:10506000095001F005F800214DF20A5001F000F856
:1050700081214DF20B5000F0FBFF00214DF20C504E
:1050800000F0F6FFA6214DF20D5000F0F1FF0021D7
:105090004DF20E5000F0ECFFE5214DF20F5000F004
:1050A000E7FF01214DF2105000F0E2FF13214DF215
:1050B000115000F0DDFF01214DF2125000F0D8FF39
:1050C00054214DF2135000F0D3FF01214DF2145042
:1050D00000F0CEFF82214DF2155000F0C9FF0121F2
:1050E0004DF2165000F0C4FFCA214DF2175000F0E7
:1050F000BFFF02214DF2185000F0BAFF00214DF21F
:10510000195000F0B5FF02214DF21A5000F0B0FF27
:1051100001214DF21B5000F0ABFF02214DF21C505B
:1051200000F0A6FF34214DF21D5000F0A1FF022136
:105130004DF21E5000F09CFF67214DF21F5000F011
:1051400097FF02214DF2205000F092FF84214DF292
:10515000215000F08DFF02214DF2225000F088FF17
:10516000A4214DF2235000F083FF02214DF2245080
:1051700000F07EFFB7214DF2255000F079FF0221AB
:105180004DF2265000F074FFCF214DF2275000F071
:105190006FFF02214DF2285000F06AFFDE214DF230
:1051A000295000F065FF02214DF22A5000F060FF07
:1051B000F2214DF22B5000F05BFF02214DF22C50FA
:1051C00000F056FFFE214DF22D5000F051FF03215B
:1051D0004DF22E5000F04CFF10214DF22F5000F0F8
:1051E00047FF03214DF2305000F042FF33214DF2D2
:1051F000315000F03DFF03214DF2325000F038FFF6
:105200006D214DF2335000F033FF00214FF4564032
:1052100000F02EFF33214DF2016000F029FF002144
:105220004DF2026000F024FF34214DF2036000F0E3
:105230001FFF00214DF2046000F01AFF3A214DF2E9
:10524000056000F015FF00214DF2066000F010FF30
:105250004A214DF2076000F00BFF00214DF208607B
:1052600000F006FF5C214DF2096000F001FF002113
:105270004DF20A6000F0FCFE81214DF20B6000F05F
:10528000F7FE00214DF20C6000F0F2FEA6214DF277
:105290000D6000F0EDFE00214DF20E6000F0E8FE22
:1052A000E5214DF20F6000F0E3FE01214DF21060A8
:1052B00000F0DEFE13214DF2116000F0D9FE012155
:1052C0004DF2126000F0D4FE54214DF2136000F054
:1052D000CFFE01214DF2146000F0CAFE82214DF292
:1052E000156000F0C5FE01214DF2166000F0C0FE11
:1052F000CA214DF2176000F0BBFE02214DF218608A
:1053000000F0B6FE00214DF2196000F0B1FE02215E
:105310004DF21A6000F0ACFE01214DF21B6000F06E
:10532000A7FE02214DF21C6000F0A2FE34214DF2D6
:105330001D6000F09DFE02214DF21E6000F098FEFF
:1053400067214DF21F6000F093FE02214DF22060B4
:1053500000F08EFE84214DF2216000F089FE0221D2
:105360004DF2226000F084FEA4214DF2236000F093
:105370007FFE02214DF2246000F07AFEB7214DF24B
:10538000256000F075FE02214DF2266000F070FEEF
:10539000CF214DF2276000F06BFE02214DF2286014
:1053A00000F066FEDE214DF2296000F061FE022170
:1053B0004DF22A6000F05CFEF2214DF22B6000F00D
:1053C00057FE02214DF22C6000F052FEFE214DF2FC
:1053D0002D6000F04DFE03214DF22E6000F048FEDE
:1053E00010214DF22F6000F043FE03214DF230609A
:1053F00000F03EFE33214DF2316000F039FE032112
:105400004DF2326000F034FE6D214DF2336000F059
:105410002FFE55214FF4704000F02AFEAA214FF2D2
:10542000010000F025FE52214FF2020000F020FEA4
:1054300008214FF2030000F01BFE00214FF2040090
:1054400000F016FECC214FF4314000F011FE002197
:105450004BF2011000F00CFE05214FF4364000F035
:1054600007FE70214FF4374000F002FE70214BF22E
:10547000017000F0FDFD01214FF4384000F0F8FD0F
:1054800003214BF6010000F0F3FD03214BF602006F
:1054900000F0EEFD03214BF6030000F0E9FD0221D0
:1054A0004FF43C4000F0E4FD00214BF6014000F0D9
:1054B000DFFD00214BF6024000F0DAFDD0214FF471
:1054C000494000F0D5FD02214CF6011000F0D0FD5E
:1054D00050214CF6021000F0CBFD50214CF6031089
:1054E00000F0C6FD50214CF6041000F0C1FD002173
:1054F0004FF4545000F0BCFD55214FF4685000F0BB
:10550000B7FD4FF4885000F09DFD7820FDF7DEFDDB
:105510004FF4245000F096FD10BD10B5E22000F0CD
:1055200091FD1D2000F082FD022000F07FFD04208F
:1055300000F07CFD6420FDF7C9FDE02000F082FD55
:10554000012000F073FD0A20FDF7B4FDE02000F01B
:1055500079FD032000F06AFD0C20FDF7ABFD012072
:1055600000F070FD0A20FDF7A5FDE62000F06AFDC1
:105570002F2000F05BFDFF2000F058FDFF2000F021
:1055800055FDB02000F05EFD202000F04FFD002012
:1055900000F04CFD032000F049FD40F21F3000F008
:1055A00045FD012000F042FD40F2DF1000F03EFD1D
:1055B000002000F03BFDB42000F044FD042000F08A
:1055C00035FD40F21F4000F031FD002000F02EFDBF
:1055D0002E2000F02BFD002000F028FD002000F020
:1055E00025FD002000F022FD002000F01FFDB62068
:1055F00000F028FD022000F019FD4FF4037000F0C8
:1056000015FD002000F012FD172000F00FFD152001
:1056100000F00CFD002000F009FD002000F006FD68
:10562000F02000F00FFD032000F000FD292000F025
:1056300009FDD02000F006FD002000F0F7FCBE20A0
:1056400000F000FD052000F0F1FCFE2000F0EEFC73
:10565000012000F0EBFC002000F0E8FC002000F04E
:10566000E5FC002000F0E2FCB82000F0EBFC032099
:1056700000F0DCFC012000F0D9FCBA2000F0E2FCD4
:10568000012000F0D3FC10BD10B5112000F0DAFCB1
:105690007820FDF70FFD362000F0D4FC002000F04C
:1056A000C5FC3A2000F0CEFC052000F0BFFCB22083
:1056B00000F0C8FC0C2000F0B9FC0C2000F0B6FC97
:1056C000002000F0B3FC332000F0B0FC332000F0E9
:1056D000ADFCB72000F0B6FC352000F0A7FCBB20E5
:1056E00000F0B0FC322000F0A1FCC02000F0AAFCC9
:1056F0000C2000F09BFCC22000F0A4FC012000F074
:1057000095FCC32000F09EFC102000F08FFCC4200C
:1057100000F098FC202000F089FCC62000F092FCEC
:105720000F2000F083FCD02000F08CFCA42000F0BF
:105730007DFCA12000F07AFCE02000F083FCD0206A
:1057400000F074FC002000F071FC022000F06EFC00
:10575000072000F06BFC0A2000F068FC282000F015
:1057600065FC322000F062FC442000F05FFC422027
:1057700000F05CFC062000F059FC0E2000F056FC06
:10578000122000F053FC142000F050FC172000F011
:105790004DFCE12000F056FCD02000F047FC00203A
:1057A00000F044FC022000F041FC072000F03EFC29
:1057B0000A2000F03BFC282000F038FC312000F0EB
:1057C00035FC542000F032FC472000F02FFC0E2066
:1057D00000F02CFC1C2000F029FC172000F026FC17
:1057E0001B2000F023FC1E2000F020FC2A2000F0EB
:1057F00029FC002000F01AFC002000F017FC00201B
:1058000000F014FCEF2000F011FC2B2000F01AFC3B
:10581000002000F00BFC002000F008FC012000F04C
:1058200005FC3F2000F002FC292000F00BFC10BD1D
:1058300000B595B000F008FFFE49888008468088D2
:1058400010B100F055FDBEE100BF00BF0020019087
:10585000F948006840F00800F74908600846006809
:1058600000F00800019000BF00BF00BF00BF00BFF4
:10587000002001900846006840F0080008600846D3
:10588000006800F00800019000BF00BF00BF00BF2B
:1058900000BF002001900846006840F00800086042
:1058A0000846006800F00800019000BF00BF00BF7C
:1058B00000BF00BF002001900846006840F00800CB
:1058C00008600846006800F00800019000BF00BFB3
:1058D00000BF00BF00BF002001900846006840F0F4
:1058E000020008600846006800F00200019000BF56
:1058F00000BF00BF80201090022011900120129064
:10590000022013900C20149010A9CC48FBF7F4F956
:105910002020109010A9C948FBF7EEF91020109034
:1059200010A9C648FBF7E8F94FF40050109010A9F1
:10593000C248FBF7E1F9202010900120119010A936
:10594000BF48FBF7D9F94FF02040BE490860BE4878
:105950004860002088600021BA48C16001611021C0
:10596000416100218161C16141624FF480518162D6
:105970000021C1624FF480410163002141638163D2
:105980004FF48011C1630F20099000200A90462037
:105990000B9000200F900F200290002003900F200A
:1059A00004900020089002AA09A9A648FCF7A6FBCB
:1059B0003220FDF77FFBD32000F044FB00F054F9C8
:1059C0009C49888000F050F99A49888000F04CF991
:1059D00098498880084680884FF6FF7101EA0020C8
:1059E0009449888000F040F9924989880843914998
:1059F00088800846808849F2413188427DD0042061
:105A000000F020FB00F030F98A49888000F02CF982
:105A10008849888000F028F986498880084680886F
:105A20004FF6FF7101EA00208249888000F01CF9DE
:105A30008049898808437F4988800846808848F2E1
:105A40005251884203D147F289707A498880794857
:105A5000808847F289718842D0D0D42000F0F2FAD1
:105A600000F002F97349888000F0FEF871498880DF
:105A700000F0FAF86F498880084680884FF6FF7179
:105A800001EA00206B49888000F0EEF869498988B6
:105A90000843684988800846808845F2103188426A
:105AA00062D055214FF4704000F0E2FAAA214FF283
:105AB000010000F0DDFA52214FF2020000F0D8FAA6
:105AC00008214FF2030000F0D3FA01214FF2040045
:105AD00000F0CEFA4FF4454000F0B4FA00F0C4F8FC
